{
  "contractName": "eth2048",
  "abi": [
    {
      "anonymous": false,
      "inputs": [
        {
          "indexed": true,
          "internalType": "address",
          "name": "addr",
          "type": "address"
        },
        {
          "indexed": false,
          "internalType": "uint256",
          "name": "game",
          "type": "uint256"
        }
      ],
      "name": "gameUpdate",
      "type": "event"
    },
    {
      "inputs": [],
      "name": "createGame",
      "outputs": [],
      "stateMutability": "nonpayable",
      "type": "function"
    },
    {
      "inputs": [
        {
          "internalType": "uint256",
          "name": "dir",
          "type": "uint256"
        }
      ],
      "name": "move",
      "outputs": [],
      "stateMutability": "nonpayable",
      "type": "function"
    },
    {
      "inputs": [
        {
          "internalType": "uint256",
          "name": "game",
          "type": "uint256"
        },
        {
          "internalType": "uint256",
          "name": "dir",
          "type": "uint256"
        }
      ],
      "name": "newSquare",
      "outputs": [
        {
          "internalType": "uint256",
          "name": "",
          "type": "uint256"
        }
      ],
      "stateMutability": "view",
      "type": "function",
      "constant": true
    }
  ],
  "bytecode": "0x608060405234801561001057600080fd5b50611246806100206000396000f3fe608060405234801561001057600080fd5b50600436106100415760003560e01c80633250d695146100465780637255d7291461007657806387cb15f714610080575b600080fd5b610060600480360381019061005b9190610f18565b61009c565b60405161006d9190610f67565b60405180910390f35b61007e61021e565b005b61009a60048036038101906100959190610f82565b6102f6565b005b600060018203610100576100f98360046001600443426100bc9190610fde565b6100c69190611067565b6100d09190611098565b6001600343426100e09190610fde565b6100ea9190611067565b6100f49190611098565b61045e565b9050610218565b600382036101615761015a836001806004434261011d9190610fde565b6101279190611067565b6101319190611098565b6001600343426101419190610fde565b61014b9190611067565b6101559190611098565b61045e565b9050610218565b600282036101c2576101bb8360016004434261017d9190610fde565b6101879190611067565b6101919190611098565b600180600343426101a29190610fde565b6101ac9190611067565b6101b69190611098565b61045e565b9050610218565b610215836001600443426101d69190610fde565b6101e09190611067565b6101ea9190611098565b60046001600343426101fc9190610fde565b6102069190611067565b6102109190611098565b61045e565b90505b92915050565b6102266104ac565b6000803373ffffffffffffffffffffffffffffffffffffffff1673ffffffffffffffffffffffffffffffffffffffff168152602001908152602001600020819055503373ffffffffffffffffffffffffffffffffffffffff167fd6bb029ad8ab645de58c3bd9ec899a2c074c851bd1a829a23dd43d17c4694aad6000803373ffffffffffffffffffffffffffffffffffffffff1673ffffffffffffffffffffffffffffffffffffffff168152602001908152602001600020546040516102ec9190610f67565b60405180910390a2565b60018110806103055750600481115b15610345576040517f08c379a000000000000000000000000000000000000000000000000000000000815260040161033c9061114b565b60405180910390fd5b61038d6000803373ffffffffffffffffffffffffffffffffffffffff1673ffffffffffffffffffffffffffffffffffffffff16815260200190815260200160002054826106d2565b6000803373ffffffffffffffffffffffffffffffffffffffff1673ffffffffffffffffffffffffffffffffffffffff168152602001908152602001600020819055503373ffffffffffffffffffffffffffffffffffffffff167fd6bb029ad8ab645de58c3bd9ec899a2c074c851bd1a829a23dd43d17c4694aad6000803373ffffffffffffffffffffffffffffffffffffffff1673ffffffffffffffffffffffffffffffffffffffff168152602001908152602001600020546040516104539190610f67565b60405180910390a250565b600061046b858585610e54565b94508460078461047b9190610fde565b600760068761048a9190610fde565b6104949190610fde565b61049e9190611098565b83901b179050949350505050565b60008060009050602a8119901b90506007601c600783901b19901b19901b90506007601c600783901b19901b19901b90506007601c600783901b19901b19901b90506007601c600783901b19901b19901b9050602a81901b19905060006402540be40043454261051c9190610fde565b6105269190610fde565b6105309190611067565b905061056f8260016004846105459190611067565b61054f9190611098565b600260038561055e9190611067565b6105689190611098565b600161045e565b91506402540be400434542846105859190610fde565b61058f9190610fde565b6105999190610fde565b6105a39190611067565b90506105e28260026003846105b89190611067565b6105c29190611098565b60016004856105d19190611067565b6105db9190611098565b600161045e565b91506402540be400434542846105f89190610fde565b6106029190610fde565b61060c9190610fde565b6106169190611067565b905061065582600160048461062b9190611067565b6106359190611098565b60026003856106449190611067565b61064e9190611098565b600161045e565b91506402540be4004345428461066b9190610fde565b6106759190610fde565b61067f9190610fde565b6106899190611067565b90506106c882600260038461069e9190611067565b6106a89190611098565b60016004856106b79190611067565b6106c19190611098565b600161045e565b9150819250505090565b6000600182036108b15760005b60068110156108ab5760005b6006811015610897576000610701868484610e9c565b9050607f8114806107125750600081145b1561071d5750610884565b600061073687600186610730919061116b565b85610e9c565b9050607f8103610747575050610884565b6000600185610756919061116b565b90505b6000610766898387610e9c565b036107a5576107778882868661045e565b97506107908860018361078a9190611098565b86610e54565b9750808061079d9061119f565b915050610759565b6107b0888286610e9c565b91508183036107ff576107d18882866001866107cc9190611098565b61045e565b97506107ea886001836107e49190611098565b86610e54565b975080806107f79061119f565b915050610807565b505050610884565b6000810361081757505050610884565b600181610824919061116b565b90505b6000610834898387610e9c565b1480156108415750600081115b15610880576108528882868661045e565b975061086b886001836108659190611098565b86610e54565b975080806108789061119f565b915050610827565b5050505b808061088f906111c8565b9150506106eb565b5080806108a3906111c8565b9150506106df565b50610e3f565b60038203610a86576000600490505b6000811115610a80576000600190505b6005811015610a6c5760006108e6868484610e9c565b9050607f8114806108f75750600081145b156109025750610a59565b600061091b876001866109159190611098565b85610e9c565b9050607f810361092c575050610a59565b600060018561093b9190611098565b90505b600061094b898387610e9c565b0361098a5761095c8882868661045e565b97506109758860018361096f919061116b565b86610e54565b97508080610982906111c8565b91505061093e565b610995888286610e9c565b91508183036109e4576109b68882866001866109b19190611098565b61045e565b97506109cf886001836109c9919061116b565b86610e54565b975080806109dc906111c8565b9150506109ec565b505050610a59565b6001816109f99190611098565b90505b6000610a09898387610e9c565b148015610a165750600581105b15610a5557610a278882868661045e565b9750610a4088600183610a3a919061116b565b86610e54565b97508080610a4d906111c8565b9150506109fc565b5050505b8080610a64906111c8565b9150506108d0565b508080610a789061119f565b9150506108c0565b50610e3e565b60028203610c5b576000600490505b6000811115610c55576000600190505b6005811015610c41576000610abb868385610e9c565b9050607f811480610acc5750600081145b15610ad75750610c2e565b6000610af08784600187610aeb9190611098565b610e9c565b9050607f8103610b01575050610c2e565b6000600185610b109190611098565b90505b6000610b20898684610e9c565b03610b5f57610b318885838661045e565b9750610b4a8885600184610b45919061116b565b610e54565b97508080610b57906111c8565b915050610b13565b610b6a888583610e9c565b9150818303610bb957610b8b888583600186610b869190611098565b61045e565b9750610ba48885600184610b9f919061116b565b610e54565b97508080610bb1906111c8565b915050610bc1565b505050610c2e565b600181610bce9190611098565b90505b6000610bde898684610e9c565b148015610beb5750600581105b15610c2a57610bfc8885838661045e565b9750610c158885600184610c10919061116b565b610e54565b97508080610c22906111c8565b915050610bd1565b5050505b8080610c39906111c8565b915050610aa5565b508080610c4d9061119f565b915050610a95565b50610e3d565b60048203610e3c576000600190505b6005811015610e3a576000600190505b6005811015610e26576000610c90868385610e9c565b9050607f811480610ca15750600081145b15610cac5750610e13565b6000610cc58784600187610cc0919061116b565b610e9c565b9050607f8103610cd6575050610e13565b6000600185610ce5919061116b565b90505b6000610cf5898684610e9c565b03610d3457610d068885838661045e565b9750610d1f8885600184610d1a9190611098565b610e54565b97508080610d2c9061119f565b915050610ce8565b610d3f888583610e9c565b9150818303610d8e57610d60888583600186610d5b9190611098565b61045e565b9750610d798885600184610d749190611098565b610e54565b97508080610d869061119f565b915050610d96565b505050610e13565b60008103610da657505050610e13565b600181610db3919061116b565b90505b6000610dc3898684610e9c565b148015610dd05750600081115b15610e0f57610de18885838661045e565b9750610dfa8885600184610df59190611098565b610e54565b97508080610e079061119f565b915050610db6565b5050505b8080610e1e906111c8565b915050610c7a565b508080610e32906111c8565b915050610c6a565b505b5b5b5b610e49838361009c565b925082905092915050565b600083600783610e649190610fde565b6007600686610e739190610fde565b610e7d9190610fde565b610e879190611098565b6007600019901b19901b191690509392505050565b6000607f600783610ead9190610fde565b6007600686610ebc9190610fde565b610ec69190610fde565b610ed09190611098565b85901c1690509392505050565b600080fd5b6000819050919050565b610ef581610ee2565b8114610f0057600080fd5b50565b600081359050610f1281610eec565b92915050565b60008060408385031215610f2f57610f2e610edd565b5b6000610f3d85828601610f03565b9250506020610f4e85828601610f03565b9150509250929050565b610f6181610ee2565b82525050565b6000602082019050610f7c6000830184610f58565b92915050565b600060208284031215610f9857610f97610edd565b5b6000610fa684828501610f03565b91505092915050565b7f4e487b7100000000000000000000000000000000000000000000000000000000600052601160045260246000fd5b6000610fe982610ee2565b9150610ff483610ee2565b9250817fffffffffffffffffffffffffffffffffffffffffffffffffffffffffffffffff048311821515161561102d5761102c610faf565b5b828202905092915050565b7f4e487b7100000000000000000000000000000000000000000000000000000000600052601260045260246000fd5b600061107282610ee2565b915061107d83610ee2565b92508261108d5761108c611038565b5b828206905092915050565b60006110a382610ee2565b91506110ae83610ee2565b9250827fffffffffffffffffffffffffffffffffffffffffffffffffffffffffffffffff038211156110e3576110e2610faf565b5b828201905092915050565b600082825260208201905092915050565b7f496e76616c696420646972656374696f6e000000000000000000000000000000600082015250565b60006111356011836110ee565b9150611140826110ff565b602082019050919050565b6000602082019050818103600083015261116481611128565b9050919050565b600061117682610ee2565b915061118183610ee2565b92508282101561119457611193610faf565b5b828203905092915050565b60006111aa82610ee2565b9150600082036111bd576111bc610faf565b5b600182039050919050565b60006111d382610ee2565b91507fffffffffffffffffffffffffffffffffffffffffffffffffffffffffffffffff820361120557611204610faf565b5b60018201905091905056fea264697066735822122052484a1f152ee0fffc413f79fb1e152eb98a4a8e47974cec0b2f9f94550a825d64736f6c634300080d0033",
  "immutableReferences": {},
  "source": "pragma solidity ^0.8.0;\ncontract eth2048 {\n  event gameUpdate(address indexed addr, uint game);\n  mapping(address => uint) games;\n  function createGame() public {\n    games[msg.sender] = _createGame();\n    emit gameUpdate(msg.sender, games[msg.sender]);\n  }\n  function _createGame() private view returns (uint) {\n    uint game = 0;\n    game = (~game << (6 * 7)); //fill top row\n    game = ~(~(game << 7) << (4 * 7)) << 7; //fill game row\n    game = ~(~(game << 7) << (4 * 7)) << 7; //fill game row\n    game = ~(~(game << 7) << (4 * 7)) << 7; //fill game row\n    game = ~(~(game << 7) << (4 * 7)) << 7; //fill game row\n    game = ~(game << (6 * 7));\n    //This will need to be random\n    uint seed = (block.timestamp * block.gaslimit * block.number) % 10e9;\n    game = _setSquare(game, (seed % 4) + 1, (seed % 3) + 2, 1);\n    seed = (seed * block.timestamp * block.gaslimit * block.number) % 10e9;\n    game = _setSquare(game, (seed % 3) + 2, (seed % 4) + 1, 1);\n    seed = (seed * block.timestamp * block.gaslimit * block.number) % 10e9;\n    game = _setSquare(game, (seed % 4) + 1, (seed % 3) + 2, 1);\n    seed = (seed * block.timestamp * block.gaslimit * block.number) % 10e9;\n    game = _setSquare(game, (seed % 3) + 2, (seed % 4) + 1, 1);\n    return game;\n  }\n  function move(uint dir) public {\n    if (dir < 1 || dir > 4) revert(\"Invalid direction\");\n    games[msg.sender] = _move(games[msg.sender], dir);\n    emit gameUpdate(msg.sender, games[msg.sender]);\n  }\n  // 1 = down, 2 = left, 3 = up, 4 = right\n  function _move(uint game, uint dir) private view returns (uint) {\n    if (dir == 1) { //Move down\n      for (uint row = 0; row < 6; row++) {\n        for (uint pos = 0; pos < 6; pos++) {\n          uint active = _checkSquare(game, row, pos);\n          if (active == 127 || active == 0) {\n            continue;\n          }\n          uint nextSquare = _checkSquare(game, row - 1, pos);\n          if (nextSquare == 127) {\n            continue;\n          }\n\n\n          //Move\n          uint next_row = row - 1;\n          while (_checkSquare(game, next_row, pos) == 0) {\n            game = _setSquare(game, next_row, pos, active);\n            game = _clearSquare(game, next_row + 1, pos);\n            next_row--;\n          }\n\n          //Check\n          nextSquare = _checkSquare(game, next_row, pos);\n          if (active == nextSquare) {\n            game = _setSquare(game, next_row, pos, nextSquare + 1);\n            game = _clearSquare(game, next_row + 1, pos);\n            next_row--;\n\n          } else {\n            continue;\n          }\n\n          //Move again\n          if (next_row == 0) {\n            continue;\n          }\n          next_row = next_row - 1;\n          while (_checkSquare(game, next_row, pos) == 0 && next_row > 0) {\n            game = _setSquare(game, next_row, pos, active);\n            game = _clearSquare(game, next_row + 1, pos);\n            next_row--;\n          }\n        }\n      }\n    }\n    else if (dir == 3) { //Move up\n      for (uint row = 4; row > 0; row--) {\n        for (uint pos = 1; pos < 5; pos++) {\n          uint active = _checkSquare(game, row, pos);\n          if (active == 127 || active == 0) {\n            continue;\n          }\n\n          uint nextSquare = _checkSquare(game, row + 1, pos);\n          if (nextSquare == 127) {\n            continue;\n          }\n\n          //Move\n          uint next_row = row + 1;\n          while (_checkSquare(game, next_row, pos) == 0) {\n            game = _setSquare(game, next_row, pos, active);\n            game = _clearSquare(game, next_row - 1, pos);\n            next_row++;\n          }\n\n          //Check\n          nextSquare = _checkSquare(game, next_row, pos);\n          if (active == nextSquare) {\n            game = _setSquare(game, next_row, pos, nextSquare + 1);\n            game = _clearSquare(game, next_row - 1, pos);\n            next_row++;\n          } else { //we've hit a piece\n            continue;\n          }\n          //Move again\n          next_row = next_row + 1;\n          while (_checkSquare(game, next_row, pos) == 0 && next_row < 5) {\n            game = _setSquare(game, next_row, pos, active);\n            game = _clearSquare(game, next_row - 1, pos);\n            next_row++;\n          }\n        }\n      }\n    } \n    else if (dir == 2) { //Move left\n      for (uint pos = 4; pos > 0; pos--) {\n        for (uint row = 1; row < 5; row++) {\n          uint active = _checkSquare(game, row, pos);\n          if (active == 127 || active == 0) {\n            continue;\n          }\n\n          uint nextSquare = _checkSquare(game, row, pos + 1);\n          if (nextSquare == 127) {\n            continue;\n          }\n\n          //Move\n          uint next_pos = pos + 1;\n          while (_checkSquare(game, row, next_pos) == 0) {\n            game = _setSquare(game, row, next_pos, active);\n            game = _clearSquare(game, row, next_pos - 1);\n            next_pos++;\n          }\n\n          //Check\n          nextSquare = _checkSquare(game, row, next_pos);\n          if (active == nextSquare) {\n            game = _setSquare(game, row, next_pos, nextSquare + 1);\n            game = _clearSquare(game, row, next_pos - 1);\n            next_pos++;\n          } else { //we've hit a piece\n            continue;\n          }\n\n          //Move again\n          next_pos = next_pos + 1;\n          while (_checkSquare(game, row, next_pos) == 0 && next_pos < 5) {\n            game = _setSquare(game, row, next_pos, active);\n            game = _clearSquare(game, row, next_pos - 1);\n            next_pos++;\n          }\n        }\n      }\n    } else if (dir == 4) { //Move right\n      for (uint pos = 1; pos < 5; pos++) {\n        for (uint row = 1; row < 5; row++) {\n          uint active = _checkSquare(game, row, pos);\n          if (active == 127 || active == 0) {\n            continue;\n          }\n\n          uint nextSquare = _checkSquare(game, row, pos - 1);\n          if (nextSquare == 127) {\n            continue;\n          }\n\n          //Move\n          uint next_pos = pos - 1;\n          while (_checkSquare(game, row, next_pos) == 0) {\n            game = _setSquare(game, row, next_pos, active);\n            game = _clearSquare(game, row, next_pos + 1);\n            next_pos--;\n          }\n\n          //Check\n          nextSquare = _checkSquare(game, row, next_pos);\n          if (active == nextSquare) {\n            game = _setSquare(game, row, next_pos, nextSquare + 1);\n            game = _clearSquare(game, row, next_pos + 1);\n            next_pos--;\n          } else { //we've hit a piece\n            continue;\n          }\n\n          //Move again\n          if (next_pos == 0) {\n            continue;\n          }\n          next_pos = next_pos - 1;\n          while (_checkSquare(game, row, next_pos) == 0 && next_pos > 0) {\n            game = _setSquare(game, row, next_pos, active);\n            game = _clearSquare(game, row, next_pos + 1);\n            next_pos--;\n          }\n        }\n      }\n    }\n    //Create random new Square\n    game = newSquare(game, dir);\n    return game;\n  }\n\n\n  function newSquare(uint game, uint dir) public view returns (uint) {\n    if (dir == 1) { //Create new square on top row\n      return _setSquare(game, 4, ((block.timestamp * block.number) % 4) + 1, ((block.timestamp * block.number) % 3) + 1);\n    } else if (dir == 3) { //move up\n      return _setSquare(game, 1, ((block.timestamp * block.number) % 4) + 1, ((block.timestamp * block.number) % 3) + 1);\n    } else if (dir == 2) { //move left\n      return _setSquare(game, ((block.timestamp * block.number) % 4) + 1, 1, ((block.timestamp * block.number) % 3) + 1);\n    } else {\n      return _setSquare(game, ((block.timestamp * block.number) % 4) + 1, 4, ((block.timestamp * block.number) % 3) + 1);\n    }\n  }\n  function _checkSquare(uint game, uint row, uint pos) private pure returns(uint) {\n    return (game >> (row * 6 * 7) + pos * 7) & ~(~(0) << 7);\n  }\n  function _clearSquare(uint game, uint row, uint pos) private pure returns(uint) {\n    return ~(~(~uint(0) << 7) << row * 6 * 7 + (pos * 7)) & game;\n  }\n  function _setSquare(uint game, uint row, uint pos, uint val) private pure returns(uint) {\n    game = _clearSquare(game, row, pos);\n    return (val << (row * 6 * 7) + pos * 7) | game;\n  }\n}",
  "sourcePath": "C:\\Users\\Ryan\\Documents\\VSCode\\2048 Group\\2048\\contracts\\eth2048.sol",
  "compiler": {
    "name": "solc",
    "version": "0.8.13+commit.abaa5c0e.Emscripten.clang"
  },
  "schemaVersion": "3.4.7",
  "updatedAt": "2022-04-26T01:36:35.629Z",
  "networkType": "ethereum",
  "devdoc": {
    "kind": "dev",
    "methods": {},
    "version": 1
  },
  "userdoc": {
    "kind": "user",
    "methods": {},
    "version": 1
  }
}