{
  "contractName": "eth2048",
  "abi": [
    {
      "inputs": [],
      "name": "state",
      "outputs": [
        {
          "internalType": "uint256",
          "name": "",
          "type": "uint256"
        }
      ],
      "stateMutability": "view",
      "type": "function"
    },
    {
      "inputs": [
        {
          "internalType": "uint256",
          "name": "game",
          "type": "uint256"
        },
        {
          "internalType": "uint256",
          "name": "dir",
          "type": "uint256"
        }
      ],
      "name": "move",
      "outputs": [
        {
          "internalType": "uint256",
          "name": "",
          "type": "uint256"
        }
      ],
      "stateMutability": "view",
      "type": "function"
    },
    {
      "inputs": [
        {
          "internalType": "uint256",
          "name": "game",
          "type": "uint256"
        },
        {
          "internalType": "uint256",
          "name": "dir",
          "type": "uint256"
        }
      ],
      "name": "newSquare",
      "outputs": [
        {
          "internalType": "uint256",
          "name": "",
          "type": "uint256"
        }
      ],
      "stateMutability": "view",
      "type": "function"
    },
    {
      "inputs": [
        {
          "internalType": "uint256",
          "name": "game",
          "type": "uint256"
        },
        {
          "internalType": "uint256",
          "name": "row",
          "type": "uint256"
        },
        {
          "internalType": "uint256",
          "name": "pos",
          "type": "uint256"
        }
      ],
      "name": "checkSquare",
      "outputs": [
        {
          "internalType": "uint256",
          "name": "",
          "type": "uint256"
        }
      ],
      "stateMutability": "pure",
      "type": "function"
    },
    {
      "inputs": [
        {
          "internalType": "uint256",
          "name": "game",
          "type": "uint256"
        },
        {
          "internalType": "uint256",
          "name": "row",
          "type": "uint256"
        },
        {
          "internalType": "uint256",
          "name": "pos",
          "type": "uint256"
        }
      ],
      "name": "clearSquare",
      "outputs": [
        {
          "internalType": "uint256",
          "name": "",
          "type": "uint256"
        }
      ],
      "stateMutability": "pure",
      "type": "function"
    },
    {
      "inputs": [
        {
          "internalType": "uint256",
          "name": "game",
          "type": "uint256"
        },
        {
          "internalType": "uint256",
          "name": "row",
          "type": "uint256"
        },
        {
          "internalType": "uint256",
          "name": "pos",
          "type": "uint256"
        },
        {
          "internalType": "uint256",
          "name": "val",
          "type": "uint256"
        }
      ],
      "name": "setSquare",
      "outputs": [
        {
          "internalType": "uint256",
          "name": "",
          "type": "uint256"
        }
      ],
      "stateMutability": "pure",
      "type": "function"
    }
  ],
  "bytecode": "0x608060405234801561001057600080fd5b50610f3b806100206000396000f3fe608060405234801561001057600080fd5b50600436106100625760003560e01c80630867408f146100675780633250d695146100975780633a1ceb41146100c75780635c14acb0146100f7578063ba308d7b14610127578063c19d93fb14610157575b600080fd5b610081600480360381019061007c9190610bfd565b610175565b60405161008e9190610c4c565b60405180910390f35b6100b160048036038101906100ac9190610bfd565b6108c3565b6040516100be9190610c4c565b60405180910390f35b6100e160048036038101906100dc9190610c67565b610a45565b6040516100ee9190610c4c565b60405180910390f35b610111600480360381019061010c9190610c67565b610a8d565b60405161011e9190610c4c565b60405180910390f35b610141600480360381019061013c9190610cba565b610ace565b60405161014e9190610c4c565b60405180910390f35b61015f610b1c565b60405161016c9190610c4c565b60405180910390f35b6000600182036103565760005b60068110156103505760005b600681101561033c5760006101a4868484610a8d565b9050607f8114806101b55750600081145b156101c05750610329565b60006101d9876001866101d39190610d50565b85610a8d565b9050607f81036101ea575050610329565b60006001856101f99190610d50565b90505b6000610209898387610a8d565b036102485761021a88828686610ace565b97506102338860018361022d9190610d84565b86610a45565b9750808061024090610dda565b9150506101fc565b610253888286610a8d565b91508183036102c15761027488828660018661026f9190610d84565b610ace565b975061028d886001836102879190610d84565b86610a45565b9750600b61029c898387610a8d565b036102ae5787955050505050506108bd565b80806102b990610dda565b9150506102c9565b505050610329565b6001816102d69190610d50565b90505b60006102e6898387610a8d565b03610325576102f788828686610ace565b97506103108860018361030a9190610d84565b86610a45565b9750808061031d90610dda565b9150506102d9565b5050505b808061033490610e03565b91505061018e565b50808061034890610e03565b915050610182565b506108ad565b6003820361051e576000600490505b6000811115610518576000600190505b600581101561050457600061038b868484610a8d565b9050607f81148061039c5750600081145b156103a757506104f1565b60006103c0876001866103ba9190610d84565b85610a8d565b9050607f81036103d15750506104f1565b60006001856103e09190610d84565b90505b60006103f0898387610a8d565b0361042f5761040188828686610ace565b975061041a886001836104149190610d50565b86610a45565b9750808061042790610e03565b9150506103e3565b61043a888286610a8d565b91508183036104895761045b8882866001866104569190610d84565b610ace565b97506104748860018361046e9190610d50565b86610a45565b9750808061048190610e03565b915050610491565b5050506104f1565b60018161049e9190610d84565b90505b60006104ae898387610a8d565b036104ed576104bf88828686610ace565b97506104d8886001836104d29190610d50565b86610a45565b975080806104e590610e03565b9150506104a1565b5050505b80806104fc90610e03565b915050610375565b50808061051090610dda565b915050610365565b506108ac565b600282036106e6576000600490505b60008111156106e0576000600190505b60058110156106cc576000610553868385610a8d565b9050607f8114806105645750600081145b1561056f57506106b9565b600061058887846001876105839190610d84565b610a8d565b9050607f81036105995750506106b9565b60006001856105a89190610d84565b90505b60006105b8898684610a8d565b036105f7576105c988858386610ace565b97506105e288856001846105dd9190610d50565b610a45565b975080806105ef90610e03565b9150506105ab565b610602888583610a8d565b91508183036106515761062388858360018661061e9190610d84565b610ace565b975061063c88856001846106379190610d50565b610a45565b9750808061064990610e03565b915050610659565b5050506106b9565b6001816106669190610d84565b90505b6000610676898684610a8d565b036106b55761068788858386610ace565b97506106a0888560018461069b9190610d50565b610a45565b975080806106ad90610e03565b915050610669565b5050505b80806106c490610e03565b91505061053d565b5080806106d890610dda565b91505061052d565b506108ab565b600482036108aa576000600190505b60058110156108a8576000600190505b600581101561089457600061071b868385610a8d565b9050607f81148061072c5750600081145b156107375750610881565b6000610750878460018761074b9190610d50565b610a8d565b9050607f8103610761575050610881565b60006001856107709190610d50565b90505b6000610780898684610a8d565b036107bf5761079188858386610ace565b97506107aa88856001846107a59190610d84565b610a45565b975080806107b790610dda565b915050610773565b6107ca888583610a8d565b9150818303610819576107eb8885836001866107e69190610d84565b610ace565b975061080488856001846107ff9190610d84565b610a45565b9750808061081190610dda565b915050610821565b505050610881565b60018161082e9190610d50565b90505b600061083e898684610a8d565b0361087d5761084f88858386610ace565b975061086888856001846108639190610d84565b610a45565b9750808061087590610dda565b915050610831565b5050505b808061088c90610e03565b915050610705565b5080806108a090610e03565b9150506106f5565b505b5b5b5b6108b783836108c3565b92508290505b92915050565b600060018203610927576109208360046001600443426108e39190610e4b565b6108ed9190610ed4565b6108f79190610d84565b6001600343426109079190610e4b565b6109119190610ed4565b61091b9190610d84565b610ace565b9050610a3f565b600382036109885761098183600180600443426109449190610e4b565b61094e9190610ed4565b6109589190610d84565b6001600343426109689190610e4b565b6109729190610ed4565b61097c9190610d84565b610ace565b9050610a3f565b600282036109e9576109e2836001600443426109a49190610e4b565b6109ae9190610ed4565b6109b89190610d84565b600180600343426109c99190610e4b565b6109d39190610ed4565b6109dd9190610d84565b610ace565b9050610a3f565b610a3c836001600443426109fd9190610e4b565b610a079190610ed4565b610a119190610d84565b6004600160034342610a239190610e4b565b610a2d9190610ed4565b610a379190610d84565b610ace565b90505b92915050565b600083600783610a559190610e4b565b6007600686610a649190610e4b565b610a6e9190610e4b565b610a789190610d84565b6007600019901b19901b191690509392505050565b6000607f600783610a9e9190610e4b565b6007600686610aad9190610e4b565b610ab79190610e4b565b610ac19190610d84565b85901c1690509392505050565b6000610adb858585610a45565b945084600784610aeb9190610e4b565b6007600687610afa9190610e4b565b610b049190610e4b565b610b0e9190610d84565b83901b179050949350505050565b60008060009050602a8119901b90506007601c600783901b19901b19901b90506007601c600783901b19901b19901b90506007601c600783901b19901b19901b90506007601c600783901b19901b19901b9050602a81901b199050610b868160046003601b610ace565b9050610b978160026003601c610ace565b9050610ba88160026004601d610ace565b9050610bb98160016004601e610ace565b90508091505090565b600080fd5b6000819050919050565b610bda81610bc7565b8114610be557600080fd5b50565b600081359050610bf781610bd1565b92915050565b60008060408385031215610c1457610c13610bc2565b5b6000610c2285828601610be8565b9250506020610c3385828601610be8565b9150509250929050565b610c4681610bc7565b82525050565b6000602082019050610c616000830184610c3d565b92915050565b600080600060608486031215610c8057610c7f610bc2565b5b6000610c8e86828701610be8565b9350506020610c9f86828701610be8565b9250506040610cb086828701610be8565b9150509250925092565b60008060008060808587031215610cd457610cd3610bc2565b5b6000610ce287828801610be8565b9450506020610cf387828801610be8565b9350506040610d0487828801610be8565b9250506060610d1587828801610be8565b91505092959194509250565b7f4e487b7100000000000000000000000000000000000000000000000000000000600052601160045260246000fd5b6000610d5b82610bc7565b9150610d6683610bc7565b925082821015610d7957610d78610d21565b5b828203905092915050565b6000610d8f82610bc7565b9150610d9a83610bc7565b9250827fffffffffffffffffffffffffffffffffffffffffffffffffffffffffffffffff03821115610dcf57610dce610d21565b5b828201905092915050565b6000610de582610bc7565b915060008203610df857610df7610d21565b5b600182039050919050565b6000610e0e82610bc7565b91507fffffffffffffffffffffffffffffffffffffffffffffffffffffffffffffffff8203610e4057610e3f610d21565b5b600182019050919050565b6000610e5682610bc7565b9150610e6183610bc7565b9250817fffffffffffffffffffffffffffffffffffffffffffffffffffffffffffffffff0483118215151615610e9a57610e99610d21565b5b828202905092915050565b7f4e487b7100000000000000000000000000000000000000000000000000000000600052601260045260246000fd5b6000610edf82610bc7565b9150610eea83610bc7565b925082610efa57610ef9610ea5565b5b82820690509291505056fea2646970667358221220fb4e4f71177a99ee498793bfa18c6ce7e62ea2e76349e8aab670ef156d7e18d364736f6c634300080d0033",
  "immutableReferences": {},
  "source": "pragma solidity ^0.8.0;\ncontract eth2048 {\n\n  function state() public view returns (uint) {\n    uint game = 0;\n\n    game = (~game << (6 * 7)); //fill top row\n    game = ~(~(game << 7) << (4 * 7)) << 7; //fill game row\n    game = ~(~(game << 7) << (4 * 7)) << 7; //fill game row\n    game = ~(~(game << 7) << (4 * 7)) << 7; //fill game row\n    game = ~(~(game << 7) << (4 * 7)) << 7; //fill game row\n    game = ~(game << (6 * 7));\n    game = setSquare(game, 4, 3, 27);\n    game = setSquare(game, 2, 3, 28);\n    game = setSquare(game, 2, 4, 29);\n    game = setSquare(game, 1, 4, 30);\n    return game;\n  }\n\n  function move(uint game, uint dir) public view returns (uint) {\n    if (dir == 1) { //Move down\n      for (uint row = 0; row < 6; row++) {\n        for (uint pos = 0; pos < 6; pos++) {\n          uint active = checkSquare(game, row, pos);\n          if (active == 127 || active == 0) {\n            continue;\n          } \n          uint nextSquare = checkSquare(game, row - 1, pos);\n          if (nextSquare == 127) {\n            continue;\n          }\n\n          //Move\n          uint next_row = row - 1;\n          while (checkSquare(game, next_row, pos) == 0) {\n            game = setSquare(game, next_row, pos, active);\n            game = clearSquare(game, next_row + 1, pos);\n            next_row--;\n          }\n\n          //Check\n          nextSquare = checkSquare(game, next_row, pos);\n          if (active == nextSquare) {\n            game = setSquare(game, next_row, pos, nextSquare + 1);\n            game = clearSquare(game, next_row + 1, pos);\n            if (checkSquare(game, next_row, pos) == 11) { //Winner detected, will use events eventually.\n                return game;\n            }\n            next_row--;\n\n          } else {\n            continue;\n          }\n          //Move again\n          next_row = next_row - 1;\n          while (checkSquare(game, next_row, pos) == 0) {\n            game = setSquare(game, next_row, pos, active);\n            game = clearSquare(game, next_row + 1, pos);\n            next_row--;\n          }\n        }\n      }\n    }\n    else if (dir == 3) { //Move up\n      for (uint row = 4; row > 0; row--) {\n        for (uint pos = 1; pos < 5; pos++) {\n          uint active = checkSquare(game, row, pos);\n          if (active == 127 || active == 0) {\n            continue;\n          }\n\n          uint nextSquare = checkSquare(game, row + 1, pos);\n          if (nextSquare == 127) {\n            continue;\n          }\n\n          //Move\n          uint next_row = row + 1;\n          while (checkSquare(game, next_row, pos) == 0) {\n            game = setSquare(game, next_row, pos, active);\n            game = clearSquare(game, next_row - 1, pos);\n            next_row++;\n          }\n\n          //Check\n          nextSquare = checkSquare(game, next_row, pos);\n          if (active == nextSquare) {\n            game = setSquare(game, next_row, pos, nextSquare + 1);\n            game = clearSquare(game, next_row - 1, pos);\n            next_row++;\n          } else { //we've hit a piece\n            continue;\n          }\n\n          //Move again\n          next_row = next_row + 1;\n          while (checkSquare(game, next_row, pos) == 0) {\n            game = setSquare(game, next_row, pos, active);\n            game = clearSquare(game, next_row - 1, pos);\n            next_row++;\n          }\n        }\n      }\n    } \n    else if (dir == 2) { //Move left\n      for (uint pos = 4; pos > 0; pos--) {\n        for (uint row = 1; row < 5; row++) {\n          uint active = checkSquare(game, row, pos);\n          if (active == 127 || active == 0) {\n            continue;\n          }\n\n          uint nextSquare = checkSquare(game, row, pos + 1);\n          if (nextSquare == 127) {\n            continue;\n          }\n\n          //Move\n          uint next_pos = pos + 1;\n          while (checkSquare(game, row, next_pos) == 0) {\n            game = setSquare(game, row, next_pos, active);\n            game = clearSquare(game, row, next_pos - 1);\n            next_pos++;\n          }\n\n          //Check\n          nextSquare = checkSquare(game, row, next_pos);\n          if (active == nextSquare) {\n            game = setSquare(game, row, next_pos, nextSquare + 1);\n            game = clearSquare(game, row, next_pos - 1);\n            next_pos++;\n          } else { //we've hit a piece\n            continue;\n          }\n\n          //Move again\n          next_pos = next_pos + 1;\n          while (checkSquare(game, row, next_pos) == 0) {\n            game = setSquare(game, row, next_pos, active);\n            game = clearSquare(game, row, next_pos - 1);\n            next_pos++;\n          }\n        }\n      }\n    } else if (dir == 4) { //Move right\n      for (uint pos = 1; pos < 5; pos++) {\n        for (uint row = 1; row < 5; row++) {\n          uint active = checkSquare(game, row, pos);\n          if (active == 127 || active == 0) {\n            continue;\n          }\n\n          uint nextSquare = checkSquare(game, row, pos - 1);\n          if (nextSquare == 127) {\n            continue;\n          }\n\n          //Move\n          uint next_pos = pos - 1;\n          while (checkSquare(game, row, next_pos) == 0) {\n            game = setSquare(game, row, next_pos, active);\n            game = clearSquare(game, row, next_pos + 1);\n            next_pos--;\n          }\n\n          //Check\n          nextSquare = checkSquare(game, row, next_pos);\n          if (active == nextSquare) {\n            game = setSquare(game, row, next_pos, nextSquare + 1);\n            game = clearSquare(game, row, next_pos + 1);\n            next_pos--;\n          } else { //we've hit a piece\n            continue;\n          }\n\n          //Move again\n          next_pos = next_pos - 1;\n          while (checkSquare(game, row, next_pos) == 0) {\n            game = setSquare(game, row, next_pos, active);\n            game = clearSquare(game, row, next_pos + 1);\n            next_pos--;\n          }\n        }\n      }\n    }\n    //Create random new Square\n    game = newSquare(game, dir);\n    return game;\n  }\n\n\n  function newSquare(uint game, uint dir) public view returns (uint) {\n    if (dir == 1) { //Create new square on top row\n      return setSquare(game, 4, ((block.timestamp * block.number) % 4) + 1, ((block.timestamp * block.number) % 3) + 1);\n    } else if (dir == 3) { //move up\n      return setSquare(game, 1, ((block.timestamp * block.number) % 4) + 1, ((block.timestamp * block.number) % 3) + 1);\n    } else if (dir == 2) { //move left\n      return setSquare(game, ((block.timestamp * block.number) % 4) + 1, 1, ((block.timestamp * block.number) % 3) + 1);\n    } else {\n      return setSquare(game, ((block.timestamp * block.number) % 4) + 1, 4, ((block.timestamp * block.number) % 3) + 1);\n    }\n  }\n  function checkSquare(uint game, uint row, uint pos) public pure returns(uint) {\n    return (game >> (row * 6 * 7) + pos * 7) & ~(~(0) << 7);\n  }\n  function clearSquare(uint game, uint row, uint pos) public pure returns(uint) {\n    return ~(~(~uint(0) << 7) << row * 6 * 7 + (pos * 7)) & game;\n  }\n  function setSquare(uint game, uint row, uint pos, uint val) public pure returns(uint) {\n    game = clearSquare(game, row, pos);\n    return (val << (row * 6 * 7) + pos * 7) | game;\n  }\n}",
  "sourcePath": "C:\\Users\\Ryan\\Documents\\VSCode\\2048\\contracts\\eth2048.sol",
  "compiler": {
    "name": "solc",
    "version": "0.8.13+commit.abaa5c0e.Emscripten.clang"
  },
  "schemaVersion": "3.4.7",
  "updatedAt": "2022-04-20T06:40:09.555Z",
  "devdoc": {
    "kind": "dev",
    "methods": {},
    "version": 1
  },
  "userdoc": {
    "kind": "user",
    "methods": {},
    "version": 1
  }
}